{
	"contracts/HelloWorld.sol": {
		"Storage": {
			"abi": [
				{
					"anonymous": false,
					"inputs": [
						{
							"indexed": true,
							"internalType": "uint256",
							"name": "id",
							"type": "uint256"
						},
						{
							"indexed": false,
							"internalType": "string",
							"name": "name",
							"type": "string"
						},
						{
							"indexed": false,
							"internalType": "uint256",
							"name": "quantity",
							"type": "uint256"
						},
						{
							"indexed": false,
							"internalType": "uint256",
							"name": "timestamp",
							"type": "uint256"
						}
					],
					"name": "ItemAdded",
					"type": "event"
				},
				{
					"anonymous": false,
					"inputs": [
						{
							"indexed": true,
							"internalType": "uint256",
							"name": "id",
							"type": "uint256"
						}
					],
					"name": "ItemRemoved",
					"type": "event"
				},
				{
					"inputs": [
						{
							"internalType": "uint256",
							"name": "_id",
							"type": "uint256"
						},
						{
							"internalType": "string",
							"name": "_name",
							"type": "string"
						},
						{
							"internalType": "uint256",
							"name": "_quantity",
							"type": "uint256"
						},
						{
							"internalType": "uint256",
							"name": "_timestamp",
							"type": "uint256"
						}
					],
					"name": "addItem",
					"outputs": [],
					"stateMutability": "nonpayable",
					"type": "function"
				},
				{
					"inputs": [
						{
							"internalType": "uint256",
							"name": "",
							"type": "uint256"
						}
					],
					"name": "items",
					"outputs": [
						{
							"internalType": "uint256",
							"name": "id",
							"type": "uint256"
						},
						{
							"internalType": "string",
							"name": "name",
							"type": "string"
						},
						{
							"internalType": "uint256",
							"name": "quantity",
							"type": "uint256"
						},
						{
							"internalType": "uint256",
							"name": "timestamp",
							"type": "uint256"
						}
					],
					"stateMutability": "view",
					"type": "function"
				},
				{
					"inputs": [
						{
							"internalType": "uint256",
							"name": "_id",
							"type": "uint256"
						}
					],
					"name": "removeItem",
					"outputs": [],
					"stateMutability": "nonpayable",
					"type": "function"
				}
			],
			"devdoc": {
				"kind": "dev",
				"methods": {},
				"version": 1
			},
			"evm": {
				"assembly": "    /* \"contracts/HelloWorld.sol\":25:687  contract Storage {... */\n  mstore(0x40, 0x80)\n  callvalue\n  dup1\n  iszero\n  tag_1\n  jumpi\n  0x00\n  dup1\n  revert\ntag_1:\n  pop\n  dataSize(sub_0)\n  dup1\n  dataOffset(sub_0)\n  0x00\n  codecopy\n  0x00\n  return\nstop\n\nsub_0: assembly {\n        /* \"contracts/HelloWorld.sol\":25:687  contract Storage {... */\n      mstore(0x40, 0x80)\n      callvalue\n      dup1\n      iszero\n      tag_1\n      jumpi\n      0x00\n      dup1\n      revert\n    tag_1:\n      pop\n      jumpi(tag_2, lt(calldatasize, 0x04))\n      shr(0xe0, calldataload(0x00))\n      dup1\n      0x71329171\n      eq\n      tag_3\n      jumpi\n      dup1\n      0xbfb231d2\n      eq\n      tag_4\n      jumpi\n      dup1\n      0xec67b45d\n      eq\n      tag_5\n      jumpi\n    tag_2:\n      0x00\n      dup1\n      revert\n        /* \"contracts/HelloWorld.sol\":583:685  function removeItem(uint _id) public {... */\n    tag_3:\n      tag_6\n      0x04\n      dup1\n      calldatasize\n      sub\n      dup2\n      add\n      swap1\n      tag_7\n      swap2\n      swap1\n      tag_8\n      jump\t// in\n    tag_7:\n      tag_9\n      jump\t// in\n    tag_6:\n      stop\n        /* \"contracts/HelloWorld.sol\":158:192  mapping(uint => Item) public items */\n    tag_4:\n      tag_10\n      0x04\n      dup1\n      calldatasize\n      sub\n      dup2\n      add\n      swap1\n      tag_11\n      swap2\n      swap1\n      tag_8\n      jump\t// in\n    tag_11:\n      tag_12\n      jump\t// in\n    tag_10:\n      mload(0x40)\n      tag_13\n      swap5\n      swap4\n      swap3\n      swap2\n      swap1\n      tag_14\n      jump\t// in\n    tag_13:\n      mload(0x40)\n      dup1\n      swap2\n      sub\n      swap1\n      return\n        /* \"contracts/HelloWorld.sol\":322:577  function addItem(uint _id, string memory _name, uint _quantity, uint _timestamp) public {... */\n    tag_5:\n      tag_15\n      0x04\n      dup1\n      calldatasize\n      sub\n      dup2\n      add\n      swap1\n      tag_16\n      swap2\n      swap1\n      tag_17\n      jump\t// in\n    tag_16:\n      tag_18\n      jump\t// in\n    tag_15:\n      stop\n        /* \"contracts/HelloWorld.sol\":583:685  function removeItem(uint _id) public {... */\n    tag_9:\n        /* \"contracts/HelloWorld.sol\":637:642  items */\n      0x00\n        /* \"contracts/HelloWorld.sol\":637:647  items[_id] */\n      dup1\n        /* \"contracts/HelloWorld.sol\":643:646  _id */\n      dup3\n        /* \"contracts/HelloWorld.sol\":637:647  items[_id] */\n      dup2\n      mstore\n      0x20\n      add\n      swap1\n      dup2\n      mstore\n      0x20\n      add\n      0x00\n      keccak256\n      0x00\n        /* \"contracts/HelloWorld.sol\":630:647  delete items[_id] */\n      dup1\n      dup3\n      add\n      0x00\n      swap1\n      sstore\n      0x01\n      dup3\n      add\n      0x00\n      tag_20\n      swap2\n      swap1\n      tag_21\n      jump\t// in\n    tag_20:\n      0x02\n      dup3\n      add\n      0x00\n      swap1\n      sstore\n      0x03\n      dup3\n      add\n      0x00\n      swap1\n      sstore\n      pop\n      pop\n        /* \"contracts/HelloWorld.sol\":674:677  _id */\n      dup1\n        /* \"contracts/HelloWorld.sol\":662:678  ItemRemoved(_id) */\n      0xa54eda4149a0fb9258911733973ecf1f6762357ed371fc6d1e63123bbce23bed\n      mload(0x40)\n      mload(0x40)\n      dup1\n      swap2\n      sub\n      swap1\n      log2\n        /* \"contracts/HelloWorld.sol\":583:685  function removeItem(uint _id) public {... */\n      pop\n      jump\t// out\n        /* \"contracts/HelloWorld.sol\":158:192  mapping(uint => Item) public items */\n    tag_12:\n      mstore(0x20, 0x00)\n      dup1\n      0x00\n      mstore\n      keccak256(0x00, 0x40)\n      0x00\n      swap2\n      pop\n      swap1\n      pop\n      dup1\n      0x00\n      add\n      sload\n      swap1\n      dup1\n      0x01\n      add\n      dup1\n      sload\n      tag_22\n      swap1\n      tag_23\n      jump\t// in\n    tag_22:\n      dup1\n      0x1f\n      add\n      0x20\n      dup1\n      swap2\n      div\n      mul\n      0x20\n      add\n      mload(0x40)\n      swap1\n      dup2\n      add\n      0x40\n      mstore\n      dup1\n      swap3\n      swap2\n      swap1\n      dup2\n      dup2\n      mstore\n      0x20\n      add\n      dup3\n      dup1\n      sload\n      tag_24\n      swap1\n      tag_23\n      jump\t// in\n    tag_24:\n      dup1\n      iszero\n      tag_25\n      jumpi\n      dup1\n      0x1f\n      lt\n      tag_26\n      jumpi\n      0x0100\n      dup1\n      dup4\n      sload\n      div\n      mul\n      dup4\n      mstore\n      swap2\n      0x20\n      add\n      swap2\n      jump(tag_25)\n    tag_26:\n      dup3\n      add\n      swap2\n      swap1\n      0x00\n      mstore\n      keccak256(0x00, 0x20)\n      swap1\n    tag_27:\n      dup2\n      sload\n      dup2\n      mstore\n      swap1\n      0x01\n      add\n      swap1\n      0x20\n      add\n      dup1\n      dup4\n      gt\n      tag_27\n      jumpi\n      dup3\n      swap1\n      sub\n      0x1f\n      and\n      dup3\n      add\n      swap2\n    tag_25:\n      pop\n      pop\n      pop\n      pop\n      pop\n      swap1\n      dup1\n      0x02\n      add\n      sload\n      swap1\n      dup1\n      0x03\n      add\n      sload\n      swap1\n      pop\n      dup5\n      jump\t// out\n        /* \"contracts/HelloWorld.sol\":322:577  function addItem(uint _id, string memory _name, uint _quantity, uint _timestamp) public {... */\n    tag_18:\n        /* \"contracts/HelloWorld.sol\":420:439  Item memory newItem */\n      0x00\n        /* \"contracts/HelloWorld.sol\":442:481  Item(_id, _name, _quantity, _timestamp) */\n      mload(0x40)\n      dup1\n      0x80\n      add\n      0x40\n      mstore\n      dup1\n        /* \"contracts/HelloWorld.sol\":447:450  _id */\n      dup7\n        /* \"contracts/HelloWorld.sol\":442:481  Item(_id, _name, _quantity, _timestamp) */\n      dup2\n      mstore\n      0x20\n      add\n        /* \"contracts/HelloWorld.sol\":452:457  _name */\n      dup6\n        /* \"contracts/HelloWorld.sol\":442:481  Item(_id, _name, _quantity, _timestamp) */\n      dup2\n      mstore\n      0x20\n      add\n        /* \"contracts/HelloWorld.sol\":459:468  _quantity */\n      dup5\n        /* \"contracts/HelloWorld.sol\":442:481  Item(_id, _name, _quantity, _timestamp) */\n      dup2\n      mstore\n      0x20\n      add\n        /* \"contracts/HelloWorld.sol\":470:480  _timestamp */\n      dup4\n        /* \"contracts/HelloWorld.sol\":442:481  Item(_id, _name, _quantity, _timestamp) */\n      dup2\n      mstore\n      pop\n        /* \"contracts/HelloWorld.sol\":420:481  Item memory newItem = Item(_id, _name, _quantity, _timestamp) */\n      swap1\n      pop\n        /* \"contracts/HelloWorld.sol\":504:511  newItem */\n      dup1\n        /* \"contracts/HelloWorld.sol\":491:496  items */\n      0x00\n        /* \"contracts/HelloWorld.sol\":491:501  items[_id] */\n      dup1\n        /* \"contracts/HelloWorld.sol\":497:500  _id */\n      dup8\n        /* \"contracts/HelloWorld.sol\":491:501  items[_id] */\n      dup2\n      mstore\n      0x20\n      add\n      swap1\n      dup2\n      mstore\n      0x20\n      add\n      0x00\n      keccak256\n        /* \"contracts/HelloWorld.sol\":491:511  items[_id] = newItem */\n      0x00\n      dup3\n      add\n      mload\n      dup2\n      0x00\n      add\n      sstore\n      0x20\n      dup3\n      add\n      mload\n      dup2\n      0x01\n      add\n      swap1\n      dup2\n      tag_29\n      swap2\n      swap1\n      tag_30\n      jump\t// in\n    tag_29:\n      pop\n      0x40\n      dup3\n      add\n      mload\n      dup2\n      0x02\n      add\n      sstore\n      0x60\n      dup3\n      add\n      mload\n      dup2\n      0x03\n      add\n      sstore\n      swap1\n      pop\n      pop\n        /* \"contracts/HelloWorld.sol\":536:539  _id */\n      dup5\n        /* \"contracts/HelloWorld.sol\":526:570  ItemAdded(_id, _name, _quantity, _timestamp) */\n      0x665e452eb624a7f9bf54abd5d404d4f4da7360a1e40698893fe2cc447a51af9c\n        /* \"contracts/HelloWorld.sol\":541:546  _name */\n      dup6\n        /* \"contracts/HelloWorld.sol\":548:557  _quantity */\n      dup6\n        /* \"contracts/HelloWorld.sol\":559:569  _timestamp */\n      dup6\n        /* \"contracts/HelloWorld.sol\":526:570  ItemAdded(_id, _name, _quantity, _timestamp) */\n      mload(0x40)\n      tag_31\n      swap4\n      swap3\n      swap2\n      swap1\n      tag_32\n      jump\t// in\n    tag_31:\n      mload(0x40)\n      dup1\n      swap2\n      sub\n      swap1\n      log2\n        /* \"contracts/HelloWorld.sol\":410:577  {... */\n      pop\n        /* \"contracts/HelloWorld.sol\":322:577  function addItem(uint _id, string memory _name, uint _quantity, uint _timestamp) public {... */\n      pop\n      pop\n      pop\n      pop\n      jump\t// out\n    tag_21:\n      pop\n      dup1\n      sload\n      tag_33\n      swap1\n      tag_23\n      jump\t// in\n    tag_33:\n      0x00\n      dup3\n      sstore\n      dup1\n      0x1f\n      lt\n      tag_35\n      jumpi\n      pop\n      jump(tag_34)\n    tag_35:\n      0x1f\n      add\n      0x20\n      swap1\n      div\n      swap1\n      0x00\n      mstore\n      keccak256(0x00, 0x20)\n      swap1\n      dup2\n      add\n      swap1\n      tag_36\n      swap2\n      swap1\n      tag_37\n      jump\t// in\n    tag_36:\n    tag_34:\n      pop\n      jump\t// out\n    tag_37:\n    tag_38:\n      dup1\n      dup3\n      gt\n      iszero\n      tag_39\n      jumpi\n      0x00\n      dup2\n      0x00\n      swap1\n      sstore\n      pop\n      0x01\n      add\n      jump(tag_38)\n    tag_39:\n      pop\n      swap1\n      jump\t// out\n        /* \"#utility.yul\":7:82   */\n    tag_40:\n        /* \"#utility.yul\":40:46   */\n      0x00\n        /* \"#utility.yul\":73:75   */\n      0x40\n        /* \"#utility.yul\":67:76   */\n      mload\n        /* \"#utility.yul\":57:76   */\n      swap1\n      pop\n        /* \"#utility.yul\":7:82   */\n      swap1\n      jump\t// out\n        /* \"#utility.yul\":88:205   */\n    tag_41:\n        /* \"#utility.yul\":197:198   */\n      0x00\n        /* \"#utility.yul\":194:195   */\n      dup1\n        /* \"#utility.yul\":187:199   */\n      revert\n        /* \"#utility.yul\":211:328   */\n    tag_42:\n        /* \"#utility.yul\":320:321   */\n      0x00\n        /* \"#utility.yul\":317:318   */\n      dup1\n        /* \"#utility.yul\":310:322   */\n      revert\n        /* \"#utility.yul\":334:411   */\n    tag_43:\n        /* \"#utility.yul\":371:378   */\n      0x00\n        /* \"#utility.yul\":400:405   */\n      dup2\n        /* \"#utility.yul\":389:405   */\n      swap1\n      pop\n        /* \"#utility.yul\":334:411   */\n      swap2\n      swap1\n      pop\n      jump\t// out\n        /* \"#utility.yul\":417:539   */\n    tag_44:\n        /* \"#utility.yul\":490:514   */\n      tag_83\n        /* \"#utility.yul\":508:513   */\n      dup2\n        /* \"#utility.yul\":490:514   */\n      tag_43\n      jump\t// in\n    tag_83:\n        /* \"#utility.yul\":483:488   */\n      dup2\n        /* \"#utility.yul\":480:515   */\n      eq\n        /* \"#utility.yul\":470:533   */\n      tag_84\n      jumpi\n        /* \"#utility.yul\":529:530   */\n      0x00\n        /* \"#utility.yul\":526:527   */\n      dup1\n        /* \"#utility.yul\":519:531   */\n      revert\n        /* \"#utility.yul\":470:533   */\n    tag_84:\n        /* \"#utility.yul\":417:539   */\n      pop\n      jump\t// out\n        /* \"#utility.yul\":545:684   */\n    tag_45:\n        /* \"#utility.yul\":591:596   */\n      0x00\n        /* \"#utility.yul\":629:635   */\n      dup2\n        /* \"#utility.yul\":616:636   */\n      calldataload\n        /* \"#utility.yul\":607:636   */\n      swap1\n      pop\n        /* \"#utility.yul\":645:678   */\n      tag_86\n        /* \"#utility.yul\":672:677   */\n      dup2\n        /* \"#utility.yul\":645:678   */\n      tag_44\n      jump\t// in\n    tag_86:\n        /* \"#utility.yul\":545:684   */\n      swap3\n      swap2\n      pop\n      pop\n      jump\t// out\n        /* \"#utility.yul\":690:1019   */\n    tag_8:\n        /* \"#utility.yul\":749:755   */\n      0x00\n        /* \"#utility.yul\":798:800   */\n      0x20\n        /* \"#utility.yul\":786:795   */\n      dup3\n        /* \"#utility.yul\":777:784   */\n      dup5\n        /* \"#utility.yul\":773:796   */\n      sub\n        /* \"#utility.yul\":769:801   */\n      slt\n        /* \"#utility.yul\":766:885   */\n      iszero\n      tag_88\n      jumpi\n        /* \"#utility.yul\":804:883   */\n      tag_89\n      tag_41\n      jump\t// in\n    tag_89:\n        /* \"#utility.yul\":766:885   */\n    tag_88:\n        /* \"#utility.yul\":924:925   */\n      0x00\n        /* \"#utility.yul\":949:1002   */\n      tag_90\n        /* \"#utility.yul\":994:1001   */\n      dup5\n        /* \"#utility.yul\":985:991   */\n      dup3\n        /* \"#utility.yul\":974:983   */\n      dup6\n        /* \"#utility.yul\":970:992   */\n      add\n        /* \"#utility.yul\":949:1002   */\n      tag_45\n      jump\t// in\n    tag_90:\n        /* \"#utility.yul\":939:1002   */\n      swap2\n      pop\n        /* \"#utility.yul\":895:1012   */\n      pop\n        /* \"#utility.yul\":690:1019   */\n      swap3\n      swap2\n      pop\n      pop\n      jump\t// out\n        /* \"#utility.yul\":1025:1143   */\n    tag_46:\n        /* \"#utility.yul\":1112:1136   */\n      tag_92\n        /* \"#utility.yul\":1130:1135   */\n      dup2\n        /* \"#utility.yul\":1112:1136   */\n      tag_43\n      jump\t// in\n    tag_92:\n        /* \"#utility.yul\":1107:1110   */\n      dup3\n        /* \"#utility.yul\":1100:1137   */\n      mstore\n        /* \"#utility.yul\":1025:1143   */\n      pop\n      pop\n      jump\t// out\n        /* \"#utility.yul\":1149:1248   */\n    tag_47:\n        /* \"#utility.yul\":1201:1207   */\n      0x00\n        /* \"#utility.yul\":1235:1240   */\n      dup2\n        /* \"#utility.yul\":1229:1241   */\n      mload\n        /* \"#utility.yul\":1219:1241   */\n      swap1\n      pop\n        /* \"#utility.yul\":1149:1248   */\n      swap2\n      swap1\n      pop\n      jump\t// out\n        /* \"#utility.yul\":1254:1423   */\n    tag_48:\n        /* \"#utility.yul\":1338:1349   */\n      0x00\n        /* \"#utility.yul\":1372:1378   */\n      dup3\n        /* \"#utility.yul\":1367:1370   */\n      dup3\n        /* \"#utility.yul\":1360:1379   */\n      mstore\n        /* \"#utility.yul\":1412:1416   */\n      0x20\n        /* \"#utility.yul\":1407:1410   */\n      dup3\n        /* \"#utility.yul\":1403:1417   */\n      add\n        /* \"#utility.yul\":1388:1417   */\n      swap1\n      pop\n        /* \"#utility.yul\":1254:1423   */\n      swap3\n      swap2\n      pop\n      pop\n      jump\t// out\n        /* \"#utility.yul\":1429:1675   */\n    tag_49:\n        /* \"#utility.yul\":1510:1511   */\n      0x00\n        /* \"#utility.yul\":1520:1633   */\n    tag_96:\n        /* \"#utility.yul\":1534:1540   */\n      dup4\n        /* \"#utility.yul\":1531:1532   */\n      dup2\n        /* \"#utility.yul\":1528:1541   */\n      lt\n        /* \"#utility.yul\":1520:1633   */\n      iszero\n      tag_98\n      jumpi\n        /* \"#utility.yul\":1619:1620   */\n      dup1\n        /* \"#utility.yul\":1614:1617   */\n      dup3\n        /* \"#utility.yul\":1610:1621   */\n      add\n        /* \"#utility.yul\":1604:1622   */\n      mload\n        /* \"#utility.yul\":1600:1601   */\n      dup2\n        /* \"#utility.yul\":1595:1598   */\n      dup5\n        /* \"#utility.yul\":1591:1602   */\n      add\n        /* \"#utility.yul\":1584:1623   */\n      mstore\n        /* \"#utility.yul\":1556:1558   */\n      0x20\n        /* \"#utility.yul\":1553:1554   */\n      dup2\n        /* \"#utility.yul\":1549:1559   */\n      add\n        /* \"#utility.yul\":1544:1559   */\n      swap1\n      pop\n        /* \"#utility.yul\":1520:1633   */\n      jump(tag_96)\n    tag_98:\n        /* \"#utility.yul\":1667:1668   */\n      0x00\n        /* \"#utility.yul\":1658:1664   */\n      dup5\n        /* \"#utility.yul\":1653:1656   */\n      dup5\n        /* \"#utility.yul\":1649:1665   */\n      add\n        /* \"#utility.yul\":1642:1669   */\n      mstore\n        /* \"#utility.yul\":1491:1675   */\n      pop\n        /* \"#utility.yul\":1429:1675   */\n      pop\n      pop\n      pop\n      jump\t// out\n        /* \"#utility.yul\":1681:1783   */\n    tag_50:\n        /* \"#utility.yul\":1722:1728   */\n      0x00\n        /* \"#utility.yul\":1773:1775   */\n      0x1f\n        /* \"#utility.yul\":1769:1776   */\n      not\n        /* \"#utility.yul\":1764:1766   */\n      0x1f\n        /* \"#utility.yul\":1757:1762   */\n      dup4\n        /* \"#utility.yul\":1753:1767   */\n      add\n        /* \"#utility.yul\":1749:1777   */\n      and\n        /* \"#utility.yul\":1739:1777   */\n      swap1\n      pop\n        /* \"#utility.yul\":1681:1783   */\n      swap2\n      swap1\n      pop\n      jump\t// out\n        /* \"#utility.yul\":1789:2166   */\n    tag_51:\n        /* \"#utility.yul\":1877:1880   */\n      0x00\n        /* \"#utility.yul\":1905:1944   */\n      tag_101\n        /* \"#utility.yul\":1938:1943   */\n      dup3\n        /* \"#utility.yul\":1905:1944   */\n      tag_47\n      jump\t// in\n    tag_101:\n        /* \"#utility.yul\":1960:2031   */\n      tag_102\n        /* \"#utility.yul\":2024:2030   */\n      dup2\n        /* \"#utility.yul\":2019:2022   */\n      dup6\n        /* \"#utility.yul\":1960:2031   */\n      tag_48\n      jump\t// in\n    tag_102:\n        /* \"#utility.yul\":1953:2031   */\n      swap4\n      pop\n        /* \"#utility.yul\":2040:2105   */\n      tag_103\n        /* \"#utility.yul\":2098:2104   */\n      dup2\n        /* \"#utility.yul\":2093:2096   */\n      dup6\n        /* \"#utility.yul\":2086:2090   */\n      0x20\n        /* \"#utility.yul\":2079:2084   */\n      dup7\n        /* \"#utility.yul\":2075:2091   */\n      add\n        /* \"#utility.yul\":2040:2105   */\n      tag_49\n      jump\t// in\n    tag_103:\n        /* \"#utility.yul\":2130:2159   */\n      tag_104\n        /* \"#utility.yul\":2152:2158   */\n      dup2\n        /* \"#utility.yul\":2130:2159   */\n      tag_50\n      jump\t// in\n    tag_104:\n        /* \"#utility.yul\":2125:2128   */\n      dup5\n        /* \"#utility.yul\":2121:2160   */\n      add\n        /* \"#utility.yul\":2114:2160   */\n      swap2\n      pop\n        /* \"#utility.yul\":1881:2166   */\n      pop\n        /* \"#utility.yul\":1789:2166   */\n      swap3\n      swap2\n      pop\n      pop\n      jump\t// out\n        /* \"#utility.yul\":2172:2816   */\n    tag_14:\n        /* \"#utility.yul\":2369:2373   */\n      0x00\n        /* \"#utility.yul\":2407:2410   */\n      0x80\n        /* \"#utility.yul\":2396:2405   */\n      dup3\n        /* \"#utility.yul\":2392:2411   */\n      add\n        /* \"#utility.yul\":2384:2411   */\n      swap1\n      pop\n        /* \"#utility.yul\":2421:2492   */\n      tag_106\n        /* \"#utility.yul\":2489:2490   */\n      0x00\n        /* \"#utility.yul\":2478:2487   */\n      dup4\n        /* \"#utility.yul\":2474:2491   */\n      add\n        /* \"#utility.yul\":2465:2471   */\n      dup8\n        /* \"#utility.yul\":2421:2492   */\n      tag_46\n      jump\t// in\n    tag_106:\n        /* \"#utility.yul\":2539:2548   */\n      dup2\n        /* \"#utility.yul\":2533:2537   */\n      dup2\n        /* \"#utility.yul\":2529:2549   */\n      sub\n        /* \"#utility.yul\":2524:2526   */\n      0x20\n        /* \"#utility.yul\":2513:2522   */\n      dup4\n        /* \"#utility.yul\":2509:2527   */\n      add\n        /* \"#utility.yul\":2502:2550   */\n      mstore\n        /* \"#utility.yul\":2567:2645   */\n      tag_107\n        /* \"#utility.yul\":2640:2644   */\n      dup2\n        /* \"#utility.yul\":2631:2637   */\n      dup7\n        /* \"#utility.yul\":2567:2645   */\n      tag_51\n      jump\t// in\n    tag_107:\n        /* \"#utility.yul\":2559:2645   */\n      swap1\n      pop\n        /* \"#utility.yul\":2655:2727   */\n      tag_108\n        /* \"#utility.yul\":2723:2725   */\n      0x40\n        /* \"#utility.yul\":2712:2721   */\n      dup4\n        /* \"#utility.yul\":2708:2726   */\n      add\n        /* \"#utility.yul\":2699:2705   */\n      dup6\n        /* \"#utility.yul\":2655:2727   */\n      tag_46\n      jump\t// in\n    tag_108:\n        /* \"#utility.yul\":2737:2809   */\n      tag_109\n        /* \"#utility.yul\":2805:2807   */\n      0x60\n        /* \"#utility.yul\":2794:2803   */\n      dup4\n        /* \"#utility.yul\":2790:2808   */\n      add\n        /* \"#utility.yul\":2781:2787   */\n      dup5\n        /* \"#utility.yul\":2737:2809   */\n      tag_46\n      jump\t// in\n    tag_109:\n        /* \"#utility.yul\":2172:2816   */\n      swap6\n      swap5\n      pop\n      pop\n      pop\n      pop\n      pop\n      jump\t// out\n        /* \"#utility.yul\":2822:2939   */\n    tag_52:\n        /* \"#utility.yul\":2931:2932   */\n      0x00\n        /* \"#utility.yul\":2928:2929   */\n      dup1\n        /* \"#utility.yul\":2921:2933   */\n      revert\n        /* \"#utility.yul\":2945:3062   */\n    tag_53:\n        /* \"#utility.yul\":3054:3055   */\n      0x00\n        /* \"#utility.yul\":3051:3052   */\n      dup1\n        /* \"#utility.yul\":3044:3056   */\n      revert\n        /* \"#utility.yul\":3068:3248   */\n    tag_54:\n        /* \"#utility.yul\":3116:3193   */\n      0x4e487b7100000000000000000000000000000000000000000000000000000000\n        /* \"#utility.yul\":3113:3114   */\n      0x00\n        /* \"#utility.yul\":3106:3194   */\n      mstore\n        /* \"#utility.yul\":3213:3217   */\n      0x41\n        /* \"#utility.yul\":3210:3211   */\n      0x04\n        /* \"#utility.yul\":3203:3218   */\n      mstore\n        /* \"#utility.yul\":3237:3241   */\n      0x24\n        /* \"#utility.yul\":3234:3235   */\n      0x00\n        /* \"#utility.yul\":3227:3242   */\n      revert\n        /* \"#utility.yul\":3254:3535   */\n    tag_55:\n        /* \"#utility.yul\":3337:3364   */\n      tag_114\n        /* \"#utility.yul\":3359:3363   */\n      dup3\n        /* \"#utility.yul\":3337:3364   */\n      tag_50\n      jump\t// in\n    tag_114:\n        /* \"#utility.yul\":3329:3335   */\n      dup2\n        /* \"#utility.yul\":3325:3365   */\n      add\n        /* \"#utility.yul\":3467:3473   */\n      dup2\n        /* \"#utility.yul\":3455:3465   */\n      dup2\n        /* \"#utility.yul\":3452:3474   */\n      lt\n        /* \"#utility.yul\":3431:3449   */\n      0xffffffffffffffff\n        /* \"#utility.yul\":3419:3429   */\n      dup3\n        /* \"#utility.yul\":3416:3450   */\n      gt\n        /* \"#utility.yul\":3413:3475   */\n      or\n        /* \"#utility.yul\":3410:3498   */\n      iszero\n      tag_115\n      jumpi\n        /* \"#utility.yul\":3478:3496   */\n      tag_116\n      tag_54\n      jump\t// in\n    tag_116:\n        /* \"#utility.yul\":3410:3498   */\n    tag_115:\n        /* \"#utility.yul\":3518:3528   */\n      dup1\n        /* \"#utility.yul\":3514:3516   */\n      0x40\n        /* \"#utility.yul\":3507:3529   */\n      mstore\n        /* \"#utility.yul\":3297:3535   */\n      pop\n        /* \"#utility.yul\":3254:3535   */\n      pop\n      pop\n      jump\t// out\n        /* \"#utility.yul\":3541:3670   */\n    tag_56:\n        /* \"#utility.yul\":3575:3581   */\n      0x00\n        /* \"#utility.yul\":3602:3622   */\n      tag_118\n      tag_40\n      jump\t// in\n    tag_118:\n        /* \"#utility.yul\":3592:3622   */\n      swap1\n      pop\n        /* \"#utility.yul\":3631:3664   */\n      tag_119\n        /* \"#utility.yul\":3659:3663   */\n      dup3\n        /* \"#utility.yul\":3651:3657   */\n      dup3\n        /* \"#utility.yul\":3631:3664   */\n      tag_55\n      jump\t// in\n    tag_119:\n        /* \"#utility.yul\":3541:3670   */\n      swap2\n      swap1\n      pop\n      jump\t// out\n        /* \"#utility.yul\":3676:3984   */\n    tag_57:\n        /* \"#utility.yul\":3738:3742   */\n      0x00\n        /* \"#utility.yul\":3828:3846   */\n      0xffffffffffffffff\n        /* \"#utility.yul\":3820:3826   */\n      dup3\n        /* \"#utility.yul\":3817:3847   */\n      gt\n        /* \"#utility.yul\":3814:3870   */\n      iszero\n      tag_121\n      jumpi\n        /* \"#utility.yul\":3850:3868   */\n      tag_122\n      tag_54\n      jump\t// in\n    tag_122:\n        /* \"#utility.yul\":3814:3870   */\n    tag_121:\n        /* \"#utility.yul\":3888:3917   */\n      tag_123\n        /* \"#utility.yul\":3910:3916   */\n      dup3\n        /* \"#utility.yul\":3888:3917   */\n      tag_50\n      jump\t// in\n    tag_123:\n        /* \"#utility.yul\":3880:3917   */\n      swap1\n      pop\n        /* \"#utility.yul\":3972:3976   */\n      0x20\n        /* \"#utility.yul\":3966:3970   */\n      dup2\n        /* \"#utility.yul\":3962:3977   */\n      add\n        /* \"#utility.yul\":3954:3977   */\n      swap1\n      pop\n        /* \"#utility.yul\":3676:3984   */\n      swap2\n      swap1\n      pop\n      jump\t// out\n        /* \"#utility.yul\":3990:4136   */\n    tag_58:\n        /* \"#utility.yul\":4087:4093   */\n      dup3\n        /* \"#utility.yul\":4082:4085   */\n      dup2\n        /* \"#utility.yul\":4077:4080   */\n      dup4\n        /* \"#utility.yul\":4064:4094   */\n      calldatacopy\n        /* \"#utility.yul\":4128:4129   */\n      0x00\n        /* \"#utility.yul\":4119:4125   */\n      dup4\n        /* \"#utility.yul\":4114:4117   */\n      dup4\n        /* \"#utility.yul\":4110:4126   */\n      add\n        /* \"#utility.yul\":4103:4130   */\n      mstore\n        /* \"#utility.yul\":3990:4136   */\n      pop\n      pop\n      pop\n      jump\t// out\n        /* \"#utility.yul\":4142:4567   */\n    tag_59:\n        /* \"#utility.yul\":4220:4225   */\n      0x00\n        /* \"#utility.yul\":4245:4311   */\n      tag_126\n        /* \"#utility.yul\":4261:4310   */\n      tag_127\n        /* \"#utility.yul\":4303:4309   */\n      dup5\n        /* \"#utility.yul\":4261:4310   */\n      tag_57\n      jump\t// in\n    tag_127:\n        /* \"#utility.yul\":4245:4311   */\n      tag_56\n      jump\t// in\n    tag_126:\n        /* \"#utility.yul\":4236:4311   */\n      swap1\n      pop\n        /* \"#utility.yul\":4334:4340   */\n      dup3\n        /* \"#utility.yul\":4327:4332   */\n      dup2\n        /* \"#utility.yul\":4320:4341   */\n      mstore\n        /* \"#utility.yul\":4372:4376   */\n      0x20\n        /* \"#utility.yul\":4365:4370   */\n      dup2\n        /* \"#utility.yul\":4361:4377   */\n      add\n        /* \"#utility.yul\":4410:4413   */\n      dup5\n        /* \"#utility.yul\":4401:4407   */\n      dup5\n        /* \"#utility.yul\":4396:4399   */\n      dup5\n        /* \"#utility.yul\":4392:4408   */\n      add\n        /* \"#utility.yul\":4389:4414   */\n      gt\n        /* \"#utility.yul\":4386:4498   */\n      iszero\n      tag_128\n      jumpi\n        /* \"#utility.yul\":4417:4496   */\n      tag_129\n      tag_53\n      jump\t// in\n    tag_129:\n        /* \"#utility.yul\":4386:4498   */\n    tag_128:\n        /* \"#utility.yul\":4507:4561   */\n      tag_130\n        /* \"#utility.yul\":4554:4560   */\n      dup5\n        /* \"#utility.yul\":4549:4552   */\n      dup3\n        /* \"#utility.yul\":4544:4547   */\n      dup6\n        /* \"#utility.yul\":4507:4561   */\n      tag_58\n      jump\t// in\n    tag_130:\n        /* \"#utility.yul\":4226:4567   */\n      pop\n        /* \"#utility.yul\":4142:4567   */\n      swap4\n      swap3\n      pop\n      pop\n      pop\n      jump\t// out\n        /* \"#utility.yul\":4587:4927   */\n    tag_60:\n        /* \"#utility.yul\":4643:4648   */\n      0x00\n        /* \"#utility.yul\":4692:4695   */\n      dup3\n        /* \"#utility.yul\":4685:4689   */\n      0x1f\n        /* \"#utility.yul\":4677:4683   */\n      dup4\n        /* \"#utility.yul\":4673:4690   */\n      add\n        /* \"#utility.yul\":4669:4696   */\n      slt\n        /* \"#utility.yul\":4659:4781   */\n      tag_132\n      jumpi\n        /* \"#utility.yul\":4700:4779   */\n      tag_133\n      tag_52\n      jump\t// in\n    tag_133:\n        /* \"#utility.yul\":4659:4781   */\n    tag_132:\n        /* \"#utility.yul\":4817:4823   */\n      dup2\n        /* \"#utility.yul\":4804:4824   */\n      calldataload\n        /* \"#utility.yul\":4842:4921   */\n      tag_134\n        /* \"#utility.yul\":4917:4920   */\n      dup5\n        /* \"#utility.yul\":4909:4915   */\n      dup3\n        /* \"#utility.yul\":4902:4906   */\n      0x20\n        /* \"#utility.yul\":4894:4900   */\n      dup7\n        /* \"#utility.yul\":4890:4907   */\n      add\n        /* \"#utility.yul\":4842:4921   */\n      tag_59\n      jump\t// in\n    tag_134:\n        /* \"#utility.yul\":4833:4921   */\n      swap2\n      pop\n        /* \"#utility.yul\":4649:4927   */\n      pop\n        /* \"#utility.yul\":4587:4927   */\n      swap3\n      swap2\n      pop\n      pop\n      jump\t// out\n        /* \"#utility.yul\":4933:5878   */\n    tag_17:\n        /* \"#utility.yul\":5029:5035   */\n      0x00\n        /* \"#utility.yul\":5037:5043   */\n      dup1\n        /* \"#utility.yul\":5045:5051   */\n      0x00\n        /* \"#utility.yul\":5053:5059   */\n      dup1\n        /* \"#utility.yul\":5102:5105   */\n      0x80\n        /* \"#utility.yul\":5090:5099   */\n      dup6\n        /* \"#utility.yul\":5081:5088   */\n      dup8\n        /* \"#utility.yul\":5077:5100   */\n      sub\n        /* \"#utility.yul\":5073:5106   */\n      slt\n        /* \"#utility.yul\":5070:5190   */\n      iszero\n      tag_136\n      jumpi\n        /* \"#utility.yul\":5109:5188   */\n      tag_137\n      tag_41\n      jump\t// in\n    tag_137:\n        /* \"#utility.yul\":5070:5190   */\n    tag_136:\n        /* \"#utility.yul\":5229:5230   */\n      0x00\n        /* \"#utility.yul\":5254:5307   */\n      tag_138\n        /* \"#utility.yul\":5299:5306   */\n      dup8\n        /* \"#utility.yul\":5290:5296   */\n      dup3\n        /* \"#utility.yul\":5279:5288   */\n      dup9\n        /* \"#utility.yul\":5275:5297   */\n      add\n        /* \"#utility.yul\":5254:5307   */\n      tag_45\n      jump\t// in\n    tag_138:\n        /* \"#utility.yul\":5244:5307   */\n      swap5\n      pop\n        /* \"#utility.yul\":5200:5317   */\n      pop\n        /* \"#utility.yul\":5384:5386   */\n      0x20\n        /* \"#utility.yul\":5373:5382   */\n      dup6\n        /* \"#utility.yul\":5369:5387   */\n      add\n        /* \"#utility.yul\":5356:5388   */\n      calldataload\n        /* \"#utility.yul\":5415:5433   */\n      0xffffffffffffffff\n        /* \"#utility.yul\":5407:5413   */\n      dup2\n        /* \"#utility.yul\":5404:5434   */\n      gt\n        /* \"#utility.yul\":5401:5518   */\n      iszero\n      tag_139\n      jumpi\n        /* \"#utility.yul\":5437:5516   */\n      tag_140\n      tag_42\n      jump\t// in\n    tag_140:\n        /* \"#utility.yul\":5401:5518   */\n    tag_139:\n        /* \"#utility.yul\":5542:5605   */\n      tag_141\n        /* \"#utility.yul\":5597:5604   */\n      dup8\n        /* \"#utility.yul\":5588:5594   */\n      dup3\n        /* \"#utility.yul\":5577:5586   */\n      dup9\n        /* \"#utility.yul\":5573:5595   */\n      add\n        /* \"#utility.yul\":5542:5605   */\n      tag_60\n      jump\t// in\n    tag_141:\n        /* \"#utility.yul\":5532:5605   */\n      swap4\n      pop\n        /* \"#utility.yul\":5327:5615   */\n      pop\n        /* \"#utility.yul\":5654:5656   */\n      0x40\n        /* \"#utility.yul\":5680:5733   */\n      tag_142\n        /* \"#utility.yul\":5725:5732   */\n      dup8\n        /* \"#utility.yul\":5716:5722   */\n      dup3\n        /* \"#utility.yul\":5705:5714   */\n      dup9\n        /* \"#utility.yul\":5701:5723   */\n      add\n        /* \"#utility.yul\":5680:5733   */\n      tag_45\n      jump\t// in\n    tag_142:\n        /* \"#utility.yul\":5670:5733   */\n      swap3\n      pop\n        /* \"#utility.yul\":5625:5743   */\n      pop\n        /* \"#utility.yul\":5782:5784   */\n      0x60\n        /* \"#utility.yul\":5808:5861   */\n      tag_143\n        /* \"#utility.yul\":5853:5860   */\n      dup8\n        /* \"#utility.yul\":5844:5850   */\n      dup3\n        /* \"#utility.yul\":5833:5842   */\n      dup9\n        /* \"#utility.yul\":5829:5851   */\n      add\n        /* \"#utility.yul\":5808:5861   */\n      tag_45\n      jump\t// in\n    tag_143:\n        /* \"#utility.yul\":5798:5861   */\n      swap2\n      pop\n        /* \"#utility.yul\":5753:5871   */\n      pop\n        /* \"#utility.yul\":4933:5878   */\n      swap3\n      swap6\n      swap2\n      swap5\n      pop\n      swap3\n      pop\n      jump\t// out\n        /* \"#utility.yul\":5884:6064   */\n    tag_61:\n        /* \"#utility.yul\":5932:6009   */\n      0x4e487b7100000000000000000000000000000000000000000000000000000000\n        /* \"#utility.yul\":5929:5930   */\n      0x00\n        /* \"#utility.yul\":5922:6010   */\n      mstore\n        /* \"#utility.yul\":6029:6033   */\n      0x22\n        /* \"#utility.yul\":6026:6027   */\n      0x04\n        /* \"#utility.yul\":6019:6034   */\n      mstore\n        /* \"#utility.yul\":6053:6057   */\n      0x24\n        /* \"#utility.yul\":6050:6051   */\n      0x00\n        /* \"#utility.yul\":6043:6058   */\n      revert\n        /* \"#utility.yul\":6070:6390   */\n    tag_23:\n        /* \"#utility.yul\":6114:6120   */\n      0x00\n        /* \"#utility.yul\":6151:6152   */\n      0x02\n        /* \"#utility.yul\":6145:6149   */\n      dup3\n        /* \"#utility.yul\":6141:6153   */\n      div\n        /* \"#utility.yul\":6131:6153   */\n      swap1\n      pop\n        /* \"#utility.yul\":6198:6199   */\n      0x01\n        /* \"#utility.yul\":6192:6196   */\n      dup3\n        /* \"#utility.yul\":6188:6200   */\n      and\n        /* \"#utility.yul\":6219:6237   */\n      dup1\n        /* \"#utility.yul\":6209:6290   */\n      tag_146\n      jumpi\n        /* \"#utility.yul\":6275:6279   */\n      0x7f\n        /* \"#utility.yul\":6267:6273   */\n      dup3\n        /* \"#utility.yul\":6263:6280   */\n      and\n        /* \"#utility.yul\":6253:6280   */\n      swap2\n      pop\n        /* \"#utility.yul\":6209:6290   */\n    tag_146:\n        /* \"#utility.yul\":6337:6339   */\n      0x20\n        /* \"#utility.yul\":6329:6335   */\n      dup3\n        /* \"#utility.yul\":6326:6340   */\n      lt\n        /* \"#utility.yul\":6306:6324   */\n      dup2\n        /* \"#utility.yul\":6303:6341   */\n      sub\n        /* \"#utility.yul\":6300:6384   */\n      tag_147\n      jumpi\n        /* \"#utility.yul\":6356:6374   */\n      tag_148\n      tag_61\n      jump\t// in\n    tag_148:\n        /* \"#utility.yul\":6300:6384   */\n    tag_147:\n        /* \"#utility.yul\":6121:6390   */\n      pop\n        /* \"#utility.yul\":6070:6390   */\n      swap2\n      swap1\n      pop\n      jump\t// out\n        /* \"#utility.yul\":6396:6537   */\n    tag_62:\n        /* \"#utility.yul\":6445:6449   */\n      0x00\n        /* \"#utility.yul\":6468:6471   */\n      dup2\n        /* \"#utility.yul\":6460:6471   */\n      swap1\n      pop\n        /* \"#utility.yul\":6491:6494   */\n      dup2\n        /* \"#utility.yul\":6488:6489   */\n      0x00\n        /* \"#utility.yul\":6481:6495   */\n      mstore\n        /* \"#utility.yul\":6525:6529   */\n      0x20\n        /* \"#utility.yul\":6522:6523   */\n      0x00\n        /* \"#utility.yul\":6512:6530   */\n      keccak256\n        /* \"#utility.yul\":6504:6530   */\n      swap1\n      pop\n        /* \"#utility.yul\":6396:6537   */\n      swap2\n      swap1\n      pop\n      jump\t// out\n        /* \"#utility.yul\":6543:6636   */\n    tag_63:\n        /* \"#utility.yul\":6580:6586   */\n      0x00\n        /* \"#utility.yul\":6627:6629   */\n      0x20\n        /* \"#utility.yul\":6622:6624   */\n      0x1f\n        /* \"#utility.yul\":6615:6620   */\n      dup4\n        /* \"#utility.yul\":6611:6625   */\n      add\n        /* \"#utility.yul\":6607:6630   */\n      div\n        /* \"#utility.yul\":6597:6630   */\n      swap1\n      pop\n        /* \"#utility.yul\":6543:6636   */\n      swap2\n      swap1\n      pop\n      jump\t// out\n        /* \"#utility.yul\":6642:6749   */\n    tag_64:\n        /* \"#utility.yul\":6686:6694   */\n      0x00\n        /* \"#utility.yul\":6736:6741   */\n      dup3\n        /* \"#utility.yul\":6730:6734   */\n      dup3\n        /* \"#utility.yul\":6726:6742   */\n      shl\n        /* \"#utility.yul\":6705:6742   */\n      swap1\n      pop\n        /* \"#utility.yul\":6642:6749   */\n      swap3\n      swap2\n      pop\n      pop\n      jump\t// out\n        /* \"#utility.yul\":6755:7148   */\n    tag_65:\n        /* \"#utility.yul\":6824:6830   */\n      0x00\n        /* \"#utility.yul\":6874:6875   */\n      0x08\n        /* \"#utility.yul\":6862:6872   */\n      dup4\n        /* \"#utility.yul\":6858:6876   */\n      mul\n        /* \"#utility.yul\":6897:6994   */\n      tag_153\n        /* \"#utility.yul\":6927:6993   */\n      0xffffffffffffffffffffffffffffffffffffffffffffffffffffffffffffffff\n        /* \"#utility.yul\":6916:6925   */\n      dup3\n        /* \"#utility.yul\":6897:6994   */\n      tag_64\n      jump\t// in\n    tag_153:\n        /* \"#utility.yul\":7015:7054   */\n      tag_154\n        /* \"#utility.yul\":7045:7053   */\n      dup7\n        /* \"#utility.yul\":7034:7043   */\n      dup4\n        /* \"#utility.yul\":7015:7054   */\n      tag_64\n      jump\t// in\n    tag_154:\n        /* \"#utility.yul\":7003:7054   */\n      swap6\n      pop\n        /* \"#utility.yul\":7087:7091   */\n      dup1\n        /* \"#utility.yul\":7083:7092   */\n      not\n        /* \"#utility.yul\":7076:7081   */\n      dup5\n        /* \"#utility.yul\":7072:7093   */\n      and\n        /* \"#utility.yul\":7063:7093   */\n      swap4\n      pop\n        /* \"#utility.yul\":7136:7140   */\n      dup1\n        /* \"#utility.yul\":7126:7134   */\n      dup7\n        /* \"#utility.yul\":7122:7141   */\n      and\n        /* \"#utility.yul\":7115:7120   */\n      dup5\n        /* \"#utility.yul\":7112:7142   */\n      or\n        /* \"#utility.yul\":7102:7142   */\n      swap3\n      pop\n        /* \"#utility.yul\":6831:7148   */\n      pop\n      pop\n        /* \"#utility.yul\":6755:7148   */\n      swap4\n      swap3\n      pop\n      pop\n      pop\n      jump\t// out\n        /* \"#utility.yul\":7154:7214   */\n    tag_66:\n        /* \"#utility.yul\":7182:7185   */\n      0x00\n        /* \"#utility.yul\":7203:7208   */\n      dup2\n        /* \"#utility.yul\":7196:7208   */\n      swap1\n      pop\n        /* \"#utility.yul\":7154:7214   */\n      swap2\n      swap1\n      pop\n      jump\t// out\n        /* \"#utility.yul\":7220:7362   */\n    tag_67:\n        /* \"#utility.yul\":7270:7279   */\n      0x00\n        /* \"#utility.yul\":7303:7356   */\n      tag_157\n        /* \"#utility.yul\":7321:7355   */\n      tag_158\n        /* \"#utility.yul\":7330:7354   */\n      tag_159\n        /* \"#utility.yul\":7348:7353   */\n      dup5\n        /* \"#utility.yul\":7330:7354   */\n      tag_43\n      jump\t// in\n    tag_159:\n        /* \"#utility.yul\":7321:7355   */\n      tag_66\n      jump\t// in\n    tag_158:\n        /* \"#utility.yul\":7303:7356   */\n      tag_43\n      jump\t// in\n    tag_157:\n        /* \"#utility.yul\":7290:7356   */\n      swap1\n      pop\n        /* \"#utility.yul\":7220:7362   */\n      swap2\n      swap1\n      pop\n      jump\t// out\n        /* \"#utility.yul\":7368:7443   */\n    tag_68:\n        /* \"#utility.yul\":7411:7414   */\n      0x00\n        /* \"#utility.yul\":7432:7437   */\n      dup2\n        /* \"#utility.yul\":7425:7437   */\n      swap1\n      pop\n        /* \"#utility.yul\":7368:7443   */\n      swap2\n      swap1\n      pop\n      jump\t// out\n        /* \"#utility.yul\":7449:7718   */\n    tag_69:\n        /* \"#utility.yul\":7559:7598   */\n      tag_162\n        /* \"#utility.yul\":7590:7597   */\n      dup4\n        /* \"#utility.yul\":7559:7598   */\n      tag_67\n      jump\t// in\n    tag_162:\n        /* \"#utility.yul\":7620:7711   */\n      tag_163\n        /* \"#utility.yul\":7669:7710   */\n      tag_164\n        /* \"#utility.yul\":7693:7709   */\n      dup3\n        /* \"#utility.yul\":7669:7710   */\n      tag_68\n      jump\t// in\n    tag_164:\n        /* \"#utility.yul\":7661:7667   */\n      dup5\n        /* \"#utility.yul\":7654:7658   */\n      dup5\n        /* \"#utility.yul\":7648:7659   */\n      sload\n        /* \"#utility.yul\":7620:7711   */\n      tag_65\n      jump\t// in\n    tag_163:\n        /* \"#utility.yul\":7614:7618   */\n      dup3\n        /* \"#utility.yul\":7607:7712   */\n      sstore\n        /* \"#utility.yul\":7525:7718   */\n      pop\n        /* \"#utility.yul\":7449:7718   */\n      pop\n      pop\n      pop\n      jump\t// out\n        /* \"#utility.yul\":7724:7797   */\n    tag_70:\n        /* \"#utility.yul\":7769:7772   */\n      0x00\n        /* \"#utility.yul\":7724:7797   */\n      swap1\n      jump\t// out\n        /* \"#utility.yul\":7803:7992   */\n    tag_71:\n        /* \"#utility.yul\":7880:7912   */\n      tag_167\n      tag_70\n      jump\t// in\n    tag_167:\n        /* \"#utility.yul\":7921:7986   */\n      tag_168\n        /* \"#utility.yul\":7979:7985   */\n      dup2\n        /* \"#utility.yul\":7971:7977   */\n      dup5\n        /* \"#utility.yul\":7965:7969   */\n      dup5\n        /* \"#utility.yul\":7921:7986   */\n      tag_69\n      jump\t// in\n    tag_168:\n        /* \"#utility.yul\":7856:7992   */\n      pop\n        /* \"#utility.yul\":7803:7992   */\n      pop\n      pop\n      jump\t// out\n        /* \"#utility.yul\":7998:8184   */\n    tag_72:\n        /* \"#utility.yul\":8058:8178   */\n    tag_170:\n        /* \"#utility.yul\":8075:8078   */\n      dup2\n        /* \"#utility.yul\":8068:8073   */\n      dup2\n        /* \"#utility.yul\":8065:8079   */\n      lt\n        /* \"#utility.yul\":8058:8178   */\n      iszero\n      tag_172\n      jumpi\n        /* \"#utility.yul\":8129:8168   */\n      tag_173\n        /* \"#utility.yul\":8166:8167   */\n      0x00\n        /* \"#utility.yul\":8159:8164   */\n      dup3\n        /* \"#utility.yul\":8129:8168   */\n      tag_71\n      jump\t// in\n    tag_173:\n        /* \"#utility.yul\":8102:8103   */\n      0x01\n        /* \"#utility.yul\":8095:8100   */\n      dup2\n        /* \"#utility.yul\":8091:8104   */\n      add\n        /* \"#utility.yul\":8082:8104   */\n      swap1\n      pop\n        /* \"#utility.yul\":8058:8178   */\n      jump(tag_170)\n    tag_172:\n        /* \"#utility.yul\":7998:8184   */\n      pop\n      pop\n      jump\t// out\n        /* \"#utility.yul\":8190:8733   */\n    tag_73:\n        /* \"#utility.yul\":8291:8293   */\n      0x1f\n        /* \"#utility.yul\":8286:8289   */\n      dup3\n        /* \"#utility.yul\":8283:8294   */\n      gt\n        /* \"#utility.yul\":8280:8726   */\n      iszero\n      tag_175\n      jumpi\n        /* \"#utility.yul\":8325:8363   */\n      tag_176\n        /* \"#utility.yul\":8357:8362   */\n      dup2\n        /* \"#utility.yul\":8325:8363   */\n      tag_62\n      jump\t// in\n    tag_176:\n        /* \"#utility.yul\":8409:8438   */\n      tag_177\n        /* \"#utility.yul\":8427:8437   */\n      dup5\n        /* \"#utility.yul\":8409:8438   */\n      tag_63\n      jump\t// in\n    tag_177:\n        /* \"#utility.yul\":8399:8407   */\n      dup2\n        /* \"#utility.yul\":8395:8439   */\n      add\n        /* \"#utility.yul\":8592:8594   */\n      0x20\n        /* \"#utility.yul\":8580:8590   */\n      dup6\n        /* \"#utility.yul\":8577:8595   */\n      lt\n        /* \"#utility.yul\":8574:8623   */\n      iszero\n      tag_178\n      jumpi\n        /* \"#utility.yul\":8613:8621   */\n      dup2\n        /* \"#utility.yul\":8598:8621   */\n      swap1\n      pop\n        /* \"#utility.yul\":8574:8623   */\n    tag_178:\n        /* \"#utility.yul\":8636:8716   */\n      tag_179\n        /* \"#utility.yul\":8692:8714   */\n      tag_180\n        /* \"#utility.yul\":8710:8713   */\n      dup6\n        /* \"#utility.yul\":8692:8714   */\n      tag_63\n      jump\t// in\n    tag_180:\n        /* \"#utility.yul\":8682:8690   */\n      dup4\n        /* \"#utility.yul\":8678:8715   */\n      add\n        /* \"#utility.yul\":8665:8676   */\n      dup3\n        /* \"#utility.yul\":8636:8716   */\n      tag_72\n      jump\t// in\n    tag_179:\n        /* \"#utility.yul\":8295:8726   */\n      pop\n      pop\n        /* \"#utility.yul\":8280:8726   */\n    tag_175:\n        /* \"#utility.yul\":8190:8733   */\n      pop\n      pop\n      pop\n      jump\t// out\n        /* \"#utility.yul\":8739:8856   */\n    tag_74:\n        /* \"#utility.yul\":8793:8801   */\n      0x00\n        /* \"#utility.yul\":8843:8848   */\n      dup3\n        /* \"#utility.yul\":8837:8841   */\n      dup3\n        /* \"#utility.yul\":8833:8849   */\n      shr\n        /* \"#utility.yul\":8812:8849   */\n      swap1\n      pop\n        /* \"#utility.yul\":8739:8856   */\n      swap3\n      swap2\n      pop\n      pop\n      jump\t// out\n        /* \"#utility.yul\":8862:9031   */\n    tag_75:\n        /* \"#utility.yul\":8906:8912   */\n      0x00\n        /* \"#utility.yul\":8939:8990   */\n      tag_183\n        /* \"#utility.yul\":8987:8988   */\n      0x00\n        /* \"#utility.yul\":8983:8989   */\n      not\n        /* \"#utility.yul\":8975:8980   */\n      dup5\n        /* \"#utility.yul\":8972:8973   */\n      0x08\n        /* \"#utility.yul\":8968:8981   */\n      mul\n        /* \"#utility.yul\":8939:8990   */\n      tag_74\n      jump\t// in\n    tag_183:\n        /* \"#utility.yul\":8935:8991   */\n      not\n        /* \"#utility.yul\":9020:9024   */\n      dup1\n        /* \"#utility.yul\":9014:9018   */\n      dup4\n        /* \"#utility.yul\":9010:9025   */\n      and\n        /* \"#utility.yul\":9000:9025   */\n      swap2\n      pop\n        /* \"#utility.yul\":8913:9031   */\n      pop\n        /* \"#utility.yul\":8862:9031   */\n      swap3\n      swap2\n      pop\n      pop\n      jump\t// out\n        /* \"#utility.yul\":9036:9331   */\n    tag_76:\n        /* \"#utility.yul\":9112:9116   */\n      0x00\n        /* \"#utility.yul\":9258:9287   */\n      tag_185\n        /* \"#utility.yul\":9283:9286   */\n      dup4\n        /* \"#utility.yul\":9277:9281   */\n      dup4\n        /* \"#utility.yul\":9258:9287   */\n      tag_75\n      jump\t// in\n    tag_185:\n        /* \"#utility.yul\":9250:9287   */\n      swap2\n      pop\n        /* \"#utility.yul\":9320:9323   */\n      dup3\n        /* \"#utility.yul\":9317:9318   */\n      0x02\n        /* \"#utility.yul\":9313:9324   */\n      mul\n        /* \"#utility.yul\":9307:9311   */\n      dup3\n        /* \"#utility.yul\":9304:9325   */\n      or\n        /* \"#utility.yul\":9296:9325   */\n      swap1\n      pop\n        /* \"#utility.yul\":9036:9331   */\n      swap3\n      swap2\n      pop\n      pop\n      jump\t// out\n        /* \"#utility.yul\":9336:10731   */\n    tag_30:\n        /* \"#utility.yul\":9453:9490   */\n      tag_187\n        /* \"#utility.yul\":9486:9489   */\n      dup3\n        /* \"#utility.yul\":9453:9490   */\n      tag_47\n      jump\t// in\n    tag_187:\n        /* \"#utility.yul\":9555:9573   */\n      0xffffffffffffffff\n        /* \"#utility.yul\":9547:9553   */\n      dup2\n        /* \"#utility.yul\":9544:9574   */\n      gt\n        /* \"#utility.yul\":9541:9597   */\n      iszero\n      tag_188\n      jumpi\n        /* \"#utility.yul\":9577:9595   */\n      tag_189\n      tag_54\n      jump\t// in\n    tag_189:\n        /* \"#utility.yul\":9541:9597   */\n    tag_188:\n        /* \"#utility.yul\":9621:9659   */\n      tag_190\n        /* \"#utility.yul\":9653:9657   */\n      dup3\n        /* \"#utility.yul\":9647:9658   */\n      sload\n        /* \"#utility.yul\":9621:9659   */\n      tag_23\n      jump\t// in\n    tag_190:\n        /* \"#utility.yul\":9706:9773   */\n      tag_191\n        /* \"#utility.yul\":9766:9772   */\n      dup3\n        /* \"#utility.yul\":9758:9764   */\n      dup3\n        /* \"#utility.yul\":9752:9756   */\n      dup6\n        /* \"#utility.yul\":9706:9773   */\n      tag_73\n      jump\t// in\n    tag_191:\n        /* \"#utility.yul\":9800:9801   */\n      0x00\n        /* \"#utility.yul\":9824:9828   */\n      0x20\n        /* \"#utility.yul\":9811:9828   */\n      swap1\n      pop\n        /* \"#utility.yul\":9856:9858   */\n      0x1f\n        /* \"#utility.yul\":9848:9854   */\n      dup4\n        /* \"#utility.yul\":9845:9859   */\n      gt\n        /* \"#utility.yul\":9873:9874   */\n      0x01\n        /* \"#utility.yul\":9868:10486   */\n      dup2\n      eq\n      tag_193\n      jumpi\n        /* \"#utility.yul\":10530:10531   */\n      0x00\n        /* \"#utility.yul\":10547:10553   */\n      dup5\n        /* \"#utility.yul\":10544:10621   */\n      iszero\n      tag_194\n      jumpi\n        /* \"#utility.yul\":10596:10605   */\n      dup3\n        /* \"#utility.yul\":10591:10594   */\n      dup8\n        /* \"#utility.yul\":10587:10606   */\n      add\n        /* \"#utility.yul\":10581:10607   */\n      mload\n        /* \"#utility.yul\":10572:10607   */\n      swap1\n      pop\n        /* \"#utility.yul\":10544:10621   */\n    tag_194:\n        /* \"#utility.yul\":10647:10714   */\n      tag_195\n        /* \"#utility.yul\":10707:10713   */\n      dup6\n        /* \"#utility.yul\":10700:10705   */\n      dup3\n        /* \"#utility.yul\":10647:10714   */\n      tag_76\n      jump\t// in\n    tag_195:\n        /* \"#utility.yul\":10641:10645   */\n      dup7\n        /* \"#utility.yul\":10634:10715   */\n      sstore\n        /* \"#utility.yul\":10503:10725   */\n      pop\n        /* \"#utility.yul\":9838:10725   */\n      jump(tag_192)\n        /* \"#utility.yul\":9868:10486   */\n    tag_193:\n        /* \"#utility.yul\":9920:9924   */\n      0x1f\n        /* \"#utility.yul\":9916:9925   */\n      not\n        /* \"#utility.yul\":9908:9914   */\n      dup5\n        /* \"#utility.yul\":9904:9926   */\n      and\n        /* \"#utility.yul\":9954:9991   */\n      tag_196\n        /* \"#utility.yul\":9986:9990   */\n      dup7\n        /* \"#utility.yul\":9954:9991   */\n      tag_62\n      jump\t// in\n    tag_196:\n        /* \"#utility.yul\":10013:10014   */\n      0x00\n        /* \"#utility.yul\":10027:10235   */\n    tag_197:\n        /* \"#utility.yul\":10041:10048   */\n      dup3\n        /* \"#utility.yul\":10038:10039   */\n      dup2\n        /* \"#utility.yul\":10035:10049   */\n      lt\n        /* \"#utility.yul\":10027:10235   */\n      iszero\n      tag_199\n      jumpi\n        /* \"#utility.yul\":10120:10129   */\n      dup5\n        /* \"#utility.yul\":10115:10118   */\n      dup10\n        /* \"#utility.yul\":10111:10130   */\n      add\n        /* \"#utility.yul\":10105:10131   */\n      mload\n        /* \"#utility.yul\":10097:10103   */\n      dup3\n        /* \"#utility.yul\":10090:10132   */\n      sstore\n        /* \"#utility.yul\":10171:10172   */\n      0x01\n        /* \"#utility.yul\":10163:10169   */\n      dup3\n        /* \"#utility.yul\":10159:10173   */\n      add\n        /* \"#utility.yul\":10149:10173   */\n      swap2\n      pop\n        /* \"#utility.yul\":10218:10220   */\n      0x20\n        /* \"#utility.yul\":10207:10216   */\n      dup6\n        /* \"#utility.yul\":10203:10221   */\n      add\n        /* \"#utility.yul\":10190:10221   */\n      swap5\n      pop\n        /* \"#utility.yul\":10064:10068   */\n      0x20\n        /* \"#utility.yul\":10061:10062   */\n      dup2\n        /* \"#utility.yul\":10057:10069   */\n      add\n        /* \"#utility.yul\":10052:10069   */\n      swap1\n      pop\n        /* \"#utility.yul\":10027:10235   */\n      jump(tag_197)\n    tag_199:\n        /* \"#utility.yul\":10263:10269   */\n      dup7\n        /* \"#utility.yul\":10254:10261   */\n      dup4\n        /* \"#utility.yul\":10251:10270   */\n      lt\n        /* \"#utility.yul\":10248:10427   */\n      iszero\n      tag_200\n      jumpi\n        /* \"#utility.yul\":10321:10330   */\n      dup5\n        /* \"#utility.yul\":10316:10319   */\n      dup10\n        /* \"#utility.yul\":10312:10331   */\n      add\n        /* \"#utility.yul\":10306:10332   */\n      mload\n        /* \"#utility.yul\":10364:10412   */\n      tag_201\n        /* \"#utility.yul\":10406:10410   */\n      0x1f\n        /* \"#utility.yul\":10398:10404   */\n      dup10\n        /* \"#utility.yul\":10394:10411   */\n      and\n        /* \"#utility.yul\":10383:10392   */\n      dup3\n        /* \"#utility.yul\":10364:10412   */\n      tag_75\n      jump\t// in\n    tag_201:\n        /* \"#utility.yul\":10356:10362   */\n      dup4\n        /* \"#utility.yul\":10349:10413   */\n      sstore\n        /* \"#utility.yul\":10271:10427   */\n      pop\n        /* \"#utility.yul\":10248:10427   */\n    tag_200:\n        /* \"#utility.yul\":10473:10474   */\n      0x01\n        /* \"#utility.yul\":10469:10470   */\n      0x02\n        /* \"#utility.yul\":10461:10467   */\n      dup9\n        /* \"#utility.yul\":10457:10471   */\n      mul\n        /* \"#utility.yul\":10453:10475   */\n      add\n        /* \"#utility.yul\":10447:10451   */\n      dup9\n        /* \"#utility.yul\":10440:10476   */\n      sstore\n        /* \"#utility.yul\":9875:10486   */\n      pop\n      pop\n      pop\n        /* \"#utility.yul\":9838:10725   */\n    tag_192:\n      pop\n        /* \"#utility.yul\":9428:10731   */\n      pop\n      pop\n      pop\n        /* \"#utility.yul\":9336:10731   */\n      pop\n      pop\n      jump\t// out\n        /* \"#utility.yul\":10737:11270   */\n    tag_32:\n        /* \"#utility.yul\":10906:10910   */\n      0x00\n        /* \"#utility.yul\":10944:10946   */\n      0x60\n        /* \"#utility.yul\":10933:10942   */\n      dup3\n        /* \"#utility.yul\":10929:10947   */\n      add\n        /* \"#utility.yul\":10921:10947   */\n      swap1\n      pop\n        /* \"#utility.yul\":10993:11002   */\n      dup2\n        /* \"#utility.yul\":10987:10991   */\n      dup2\n        /* \"#utility.yul\":10983:11003   */\n      sub\n        /* \"#utility.yul\":10979:10980   */\n      0x00\n        /* \"#utility.yul\":10968:10977   */\n      dup4\n        /* \"#utility.yul\":10964:10981   */\n      add\n        /* \"#utility.yul\":10957:11004   */\n      mstore\n        /* \"#utility.yul\":11021:11099   */\n      tag_203\n        /* \"#utility.yul\":11094:11098   */\n      dup2\n        /* \"#utility.yul\":11085:11091   */\n      dup7\n        /* \"#utility.yul\":11021:11099   */\n      tag_51\n      jump\t// in\n    tag_203:\n        /* \"#utility.yul\":11013:11099   */\n      swap1\n      pop\n        /* \"#utility.yul\":11109:11181   */\n      tag_204\n        /* \"#utility.yul\":11177:11179   */\n      0x20\n        /* \"#utility.yul\":11166:11175   */\n      dup4\n        /* \"#utility.yul\":11162:11180   */\n      add\n        /* \"#utility.yul\":11153:11159   */\n      dup6\n        /* \"#utility.yul\":11109:11181   */\n      tag_46\n      jump\t// in\n    tag_204:\n        /* \"#utility.yul\":11191:11263   */\n      tag_205\n        /* \"#utility.yul\":11259:11261   */\n      0x40\n        /* \"#utility.yul\":11248:11257   */\n      dup4\n        /* \"#utility.yul\":11244:11262   */\n      add\n        /* \"#utility.yul\":11235:11241   */\n      dup5\n        /* \"#utility.yul\":11191:11263   */\n      tag_46\n      jump\t// in\n    tag_205:\n        /* \"#utility.yul\":10737:11270   */\n      swap5\n      swap4\n      pop\n      pop\n      pop\n      pop\n      jump\t// out\n\n    auxdata: 0xa26469706673582212207377c31b5ec54f60be6c263b38be4d9b7197a966fa4aec140cec3e7dcbe3e73f64736f6c63430008160033\n}\n",
				"bytecode": {
					"linkReferences": {},
					"object": "608060405234801561000f575f80fd5b506109038061001d5f395ff3fe608060405234801561000f575f80fd5b506004361061003f575f3560e01c80637132917114610043578063bfb231d21461005f578063ec67b45d14610092575b5f80fd5b61005d6004803603810190610058919061030e565b6100ae565b005b6100796004803603810190610074919061030e565b610114565b60405161008994939291906103d2565b60405180910390f35b6100ac60048036038101906100a79190610548565b6101c5565b005b5f808281526020019081526020015f205f8082015f9055600182015f6100d49190610272565b600282015f9055600382015f90555050807fa54eda4149a0fb9258911733973ecf1f6762357ed371fc6d1e63123bbce23bed60405160405180910390a250565b5f602052805f5260405f205f91509050805f015490806001018054610138906105f5565b80601f0160208091040260200160405190810160405280929190818152602001828054610164906105f5565b80156101af5780601f10610186576101008083540402835291602001916101af565b820191905f5260205f20905b81548152906001019060200180831161019257829003601f168201915b5050505050908060020154908060030154905084565b5f6040518060800160405280868152602001858152602001848152602001838152509050805f808781526020019081526020015f205f820151815f0155602082015181600101908161021791906107c2565b506040820151816002015560608201518160030155905050847f665e452eb624a7f9bf54abd5d404d4f4da7360a1e40698893fe2cc447a51af9c85858560405161026393929190610891565b60405180910390a25050505050565b50805461027e906105f5565b5f825580601f1061028f57506102ac565b601f0160209004905f5260205f20908101906102ab91906102af565b5b50565b5b808211156102c6575f815f9055506001016102b0565b5090565b5f604051905090565b5f80fd5b5f80fd5b5f819050919050565b6102ed816102db565b81146102f7575f80fd5b50565b5f81359050610308816102e4565b92915050565b5f60208284031215610323576103226102d3565b5b5f610330848285016102fa565b91505092915050565b610342816102db565b82525050565b5f81519050919050565b5f82825260208201905092915050565b5f5b8381101561037f578082015181840152602081019050610364565b5f8484015250505050565b5f601f19601f8301169050919050565b5f6103a482610348565b6103ae8185610352565b93506103be818560208601610362565b6103c78161038a565b840191505092915050565b5f6080820190506103e55f830187610339565b81810360208301526103f7818661039a565b90506104066040830185610339565b6104136060830184610339565b95945050505050565b5f80fd5b5f80fd5b7f4e487b71000000000000000000000000000000000000000000000000000000005f52604160045260245ffd5b61045a8261038a565b810181811067ffffffffffffffff8211171561047957610478610424565b5b80604052505050565b5f61048b6102ca565b90506104978282610451565b919050565b5f67ffffffffffffffff8211156104b6576104b5610424565b5b6104bf8261038a565b9050602081019050919050565b828183375f83830152505050565b5f6104ec6104e78461049c565b610482565b90508281526020810184848401111561050857610507610420565b5b6105138482856104cc565b509392505050565b5f82601f83011261052f5761052e61041c565b5b813561053f8482602086016104da565b91505092915050565b5f805f80608085870312156105605761055f6102d3565b5b5f61056d878288016102fa565b945050602085013567ffffffffffffffff81111561058e5761058d6102d7565b5b61059a8782880161051b565b93505060406105ab878288016102fa565b92505060606105bc878288016102fa565b91505092959194509250565b7f4e487b71000000000000000000000000000000000000000000000000000000005f52602260045260245ffd5b5f600282049050600182168061060c57607f821691505b60208210810361061f5761061e6105c8565b5b50919050565b5f819050815f5260205f209050919050565b5f6020601f8301049050919050565b5f82821b905092915050565b5f600883026106817fffffffffffffffffffffffffffffffffffffffffffffffffffffffffffffffff82610646565b61068b8683610646565b95508019841693508086168417925050509392505050565b5f819050919050565b5f6106c66106c16106bc846102db565b6106a3565b6102db565b9050919050565b5f819050919050565b6106df836106ac565b6106f36106eb826106cd565b848454610652565b825550505050565b5f90565b6107076106fb565b6107128184846106d6565b505050565b5b818110156107355761072a5f826106ff565b600181019050610718565b5050565b601f82111561077a5761074b81610625565b61075484610637565b81016020851015610763578190505b61077761076f85610637565b830182610717565b50505b505050565b5f82821c905092915050565b5f61079a5f198460080261077f565b1980831691505092915050565b5f6107b2838361078b565b9150826002028217905092915050565b6107cb82610348565b67ffffffffffffffff8111156107e4576107e3610424565b5b6107ee82546105f5565b6107f9828285610739565b5f60209050601f83116001811461082a575f8415610818578287015190505b61082285826107a7565b865550610889565b601f19841661083886610625565b5f5b8281101561085f5784890151825560018201915060208501945060208101905061083a565b8683101561087c5784890151610878601f89168261078b565b8355505b6001600288020188555050505b505050505050565b5f6060820190508181035f8301526108a9818661039a565b90506108b86020830185610339565b6108c56040830184610339565b94935050505056fea26469706673582212207377c31b5ec54f60be6c263b38be4d9b7197a966fa4aec140cec3e7dcbe3e73f64736f6c63430008160033",
					"opcodes": "PUSH1 0x80 PUSH1 0x40 MSTORE CALLVALUE DUP1 ISZERO PUSH2 0xF JUMPI PUSH0 DUP1 REVERT JUMPDEST POP PUSH2 0x903 DUP1 PUSH2 0x1D PUSH0 CODECOPY PUSH0 RETURN INVALID PUSH1 0x80 PUSH1 0x40 MSTORE CALLVALUE DUP1 ISZERO PUSH2 0xF JUMPI PUSH0 DUP1 REVERT JUMPDEST POP PUSH1 0x4 CALLDATASIZE LT PUSH2 0x3F JUMPI PUSH0 CALLDATALOAD PUSH1 0xE0 SHR DUP1 PUSH4 0x71329171 EQ PUSH2 0x43 JUMPI DUP1 PUSH4 0xBFB231D2 EQ PUSH2 0x5F JUMPI DUP1 PUSH4 0xEC67B45D EQ PUSH2 0x92 JUMPI JUMPDEST PUSH0 DUP1 REVERT JUMPDEST PUSH2 0x5D PUSH1 0x4 DUP1 CALLDATASIZE SUB DUP2 ADD SWAP1 PUSH2 0x58 SWAP2 SWAP1 PUSH2 0x30E JUMP JUMPDEST PUSH2 0xAE JUMP JUMPDEST STOP JUMPDEST PUSH2 0x79 PUSH1 0x4 DUP1 CALLDATASIZE SUB DUP2 ADD SWAP1 PUSH2 0x74 SWAP2 SWAP1 PUSH2 0x30E JUMP JUMPDEST PUSH2 0x114 JUMP JUMPDEST PUSH1 0x40 MLOAD PUSH2 0x89 SWAP5 SWAP4 SWAP3 SWAP2 SWAP1 PUSH2 0x3D2 JUMP JUMPDEST PUSH1 0x40 MLOAD DUP1 SWAP2 SUB SWAP1 RETURN JUMPDEST PUSH2 0xAC PUSH1 0x4 DUP1 CALLDATASIZE SUB DUP2 ADD SWAP1 PUSH2 0xA7 SWAP2 SWAP1 PUSH2 0x548 JUMP JUMPDEST PUSH2 0x1C5 JUMP JUMPDEST STOP JUMPDEST PUSH0 DUP1 DUP3 DUP2 MSTORE PUSH1 0x20 ADD SWAP1 DUP2 MSTORE PUSH1 0x20 ADD PUSH0 KECCAK256 PUSH0 DUP1 DUP3 ADD PUSH0 SWAP1 SSTORE PUSH1 0x1 DUP3 ADD PUSH0 PUSH2 0xD4 SWAP2 SWAP1 PUSH2 0x272 JUMP JUMPDEST PUSH1 0x2 DUP3 ADD PUSH0 SWAP1 SSTORE PUSH1 0x3 DUP3 ADD PUSH0 SWAP1 SSTORE POP POP DUP1 PUSH32 0xA54EDA4149A0FB9258911733973ECF1F6762357ED371FC6D1E63123BBCE23BED PUSH1 0x40 MLOAD PUSH1 0x40 MLOAD DUP1 SWAP2 SUB SWAP1 LOG2 POP JUMP JUMPDEST PUSH0 PUSH1 0x20 MSTORE DUP1 PUSH0 MSTORE PUSH1 0x40 PUSH0 KECCAK256 PUSH0 SWAP2 POP SWAP1 POP DUP1 PUSH0 ADD SLOAD SWAP1 DUP1 PUSH1 0x1 ADD DUP1 SLOAD PUSH2 0x138 SWAP1 PUSH2 0x5F5 JUMP JUMPDEST DUP1 PUSH1 0x1F ADD PUSH1 0x20 DUP1 SWAP2 DIV MUL PUSH1 0x20 ADD PUSH1 0x40 MLOAD SWAP1 DUP2 ADD PUSH1 0x40 MSTORE DUP1 SWAP3 SWAP2 SWAP1 DUP2 DUP2 MSTORE PUSH1 0x20 ADD DUP3 DUP1 SLOAD PUSH2 0x164 SWAP1 PUSH2 0x5F5 JUMP JUMPDEST DUP1 ISZERO PUSH2 0x1AF JUMPI DUP1 PUSH1 0x1F LT PUSH2 0x186 JUMPI PUSH2 0x100 DUP1 DUP4 SLOAD DIV MUL DUP4 MSTORE SWAP2 PUSH1 0x20 ADD SWAP2 PUSH2 0x1AF JUMP JUMPDEST DUP3 ADD SWAP2 SWAP1 PUSH0 MSTORE PUSH1 0x20 PUSH0 KECCAK256 SWAP1 JUMPDEST DUP2 SLOAD DUP2 MSTORE SWAP1 PUSH1 0x1 ADD SWAP1 PUSH1 0x20 ADD DUP1 DUP4 GT PUSH2 0x192 JUMPI DUP3 SWAP1 SUB PUSH1 0x1F AND DUP3 ADD SWAP2 JUMPDEST POP POP POP POP POP SWAP1 DUP1 PUSH1 0x2 ADD SLOAD SWAP1 DUP1 PUSH1 0x3 ADD SLOAD SWAP1 POP DUP5 JUMP JUMPDEST PUSH0 PUSH1 0x40 MLOAD DUP1 PUSH1 0x80 ADD PUSH1 0x40 MSTORE DUP1 DUP7 DUP2 MSTORE PUSH1 0x20 ADD DUP6 DUP2 MSTORE PUSH1 0x20 ADD DUP5 DUP2 MSTORE PUSH1 0x20 ADD DUP4 DUP2 MSTORE POP SWAP1 POP DUP1 PUSH0 DUP1 DUP8 DUP2 MSTORE PUSH1 0x20 ADD SWAP1 DUP2 MSTORE PUSH1 0x20 ADD PUSH0 KECCAK256 PUSH0 DUP3 ADD MLOAD DUP2 PUSH0 ADD SSTORE PUSH1 0x20 DUP3 ADD MLOAD DUP2 PUSH1 0x1 ADD SWAP1 DUP2 PUSH2 0x217 SWAP2 SWAP1 PUSH2 0x7C2 JUMP JUMPDEST POP PUSH1 0x40 DUP3 ADD MLOAD DUP2 PUSH1 0x2 ADD SSTORE PUSH1 0x60 DUP3 ADD MLOAD DUP2 PUSH1 0x3 ADD SSTORE SWAP1 POP POP DUP5 PUSH32 0x665E452EB624A7F9BF54ABD5D404D4F4DA7360A1E40698893FE2CC447A51AF9C DUP6 DUP6 DUP6 PUSH1 0x40 MLOAD PUSH2 0x263 SWAP4 SWAP3 SWAP2 SWAP1 PUSH2 0x891 JUMP JUMPDEST PUSH1 0x40 MLOAD DUP1 SWAP2 SUB SWAP1 LOG2 POP POP POP POP POP JUMP JUMPDEST POP DUP1 SLOAD PUSH2 0x27E SWAP1 PUSH2 0x5F5 JUMP JUMPDEST PUSH0 DUP3 SSTORE DUP1 PUSH1 0x1F LT PUSH2 0x28F JUMPI POP PUSH2 0x2AC JUMP JUMPDEST PUSH1 0x1F ADD PUSH1 0x20 SWAP1 DIV SWAP1 PUSH0 MSTORE PUSH1 0x20 PUSH0 KECCAK256 SWAP1 DUP2 ADD SWAP1 PUSH2 0x2AB SWAP2 SWAP1 PUSH2 0x2AF JUMP JUMPDEST JUMPDEST POP JUMP JUMPDEST JUMPDEST DUP1 DUP3 GT ISZERO PUSH2 0x2C6 JUMPI PUSH0 DUP2 PUSH0 SWAP1 SSTORE POP PUSH1 0x1 ADD PUSH2 0x2B0 JUMP JUMPDEST POP SWAP1 JUMP JUMPDEST PUSH0 PUSH1 0x40 MLOAD SWAP1 POP SWAP1 JUMP JUMPDEST PUSH0 DUP1 REVERT JUMPDEST PUSH0 DUP1 REVERT JUMPDEST PUSH0 DUP2 SWAP1 POP SWAP2 SWAP1 POP JUMP JUMPDEST PUSH2 0x2ED DUP2 PUSH2 0x2DB JUMP JUMPDEST DUP2 EQ PUSH2 0x2F7 JUMPI PUSH0 DUP1 REVERT JUMPDEST POP JUMP JUMPDEST PUSH0 DUP2 CALLDATALOAD SWAP1 POP PUSH2 0x308 DUP2 PUSH2 0x2E4 JUMP JUMPDEST SWAP3 SWAP2 POP POP JUMP JUMPDEST PUSH0 PUSH1 0x20 DUP3 DUP5 SUB SLT ISZERO PUSH2 0x323 JUMPI PUSH2 0x322 PUSH2 0x2D3 JUMP JUMPDEST JUMPDEST PUSH0 PUSH2 0x330 DUP5 DUP3 DUP6 ADD PUSH2 0x2FA JUMP JUMPDEST SWAP2 POP POP SWAP3 SWAP2 POP POP JUMP JUMPDEST PUSH2 0x342 DUP2 PUSH2 0x2DB JUMP JUMPDEST DUP3 MSTORE POP POP JUMP JUMPDEST PUSH0 DUP2 MLOAD SWAP1 POP SWAP2 SWAP1 POP JUMP JUMPDEST PUSH0 DUP3 DUP3 MSTORE PUSH1 0x20 DUP3 ADD SWAP1 POP SWAP3 SWAP2 POP POP JUMP JUMPDEST PUSH0 JUMPDEST DUP4 DUP2 LT ISZERO PUSH2 0x37F JUMPI DUP1 DUP3 ADD MLOAD DUP2 DUP5 ADD MSTORE PUSH1 0x20 DUP2 ADD SWAP1 POP PUSH2 0x364 JUMP JUMPDEST PUSH0 DUP5 DUP5 ADD MSTORE POP POP POP POP JUMP JUMPDEST PUSH0 PUSH1 0x1F NOT PUSH1 0x1F DUP4 ADD AND SWAP1 POP SWAP2 SWAP1 POP JUMP JUMPDEST PUSH0 PUSH2 0x3A4 DUP3 PUSH2 0x348 JUMP JUMPDEST PUSH2 0x3AE DUP2 DUP6 PUSH2 0x352 JUMP JUMPDEST SWAP4 POP PUSH2 0x3BE DUP2 DUP6 PUSH1 0x20 DUP7 ADD PUSH2 0x362 JUMP JUMPDEST PUSH2 0x3C7 DUP2 PUSH2 0x38A JUMP JUMPDEST DUP5 ADD SWAP2 POP POP SWAP3 SWAP2 POP POP JUMP JUMPDEST PUSH0 PUSH1 0x80 DUP3 ADD SWAP1 POP PUSH2 0x3E5 PUSH0 DUP4 ADD DUP8 PUSH2 0x339 JUMP JUMPDEST DUP2 DUP2 SUB PUSH1 0x20 DUP4 ADD MSTORE PUSH2 0x3F7 DUP2 DUP7 PUSH2 0x39A JUMP JUMPDEST SWAP1 POP PUSH2 0x406 PUSH1 0x40 DUP4 ADD DUP6 PUSH2 0x339 JUMP JUMPDEST PUSH2 0x413 PUSH1 0x60 DUP4 ADD DUP5 PUSH2 0x339 JUMP JUMPDEST SWAP6 SWAP5 POP POP POP POP POP JUMP JUMPDEST PUSH0 DUP1 REVERT JUMPDEST PUSH0 DUP1 REVERT JUMPDEST PUSH32 0x4E487B7100000000000000000000000000000000000000000000000000000000 PUSH0 MSTORE PUSH1 0x41 PUSH1 0x4 MSTORE PUSH1 0x24 PUSH0 REVERT JUMPDEST PUSH2 0x45A DUP3 PUSH2 0x38A JUMP JUMPDEST DUP2 ADD DUP2 DUP2 LT PUSH8 0xFFFFFFFFFFFFFFFF DUP3 GT OR ISZERO PUSH2 0x479 JUMPI PUSH2 0x478 PUSH2 0x424 JUMP JUMPDEST JUMPDEST DUP1 PUSH1 0x40 MSTORE POP POP POP JUMP JUMPDEST PUSH0 PUSH2 0x48B PUSH2 0x2CA JUMP JUMPDEST SWAP1 POP PUSH2 0x497 DUP3 DUP3 PUSH2 0x451 JUMP JUMPDEST SWAP2 SWAP1 POP JUMP JUMPDEST PUSH0 PUSH8 0xFFFFFFFFFFFFFFFF DUP3 GT ISZERO PUSH2 0x4B6 JUMPI PUSH2 0x4B5 PUSH2 0x424 JUMP JUMPDEST JUMPDEST PUSH2 0x4BF DUP3 PUSH2 0x38A JUMP JUMPDEST SWAP1 POP PUSH1 0x20 DUP2 ADD SWAP1 POP SWAP2 SWAP1 POP JUMP JUMPDEST DUP3 DUP2 DUP4 CALLDATACOPY PUSH0 DUP4 DUP4 ADD MSTORE POP POP POP JUMP JUMPDEST PUSH0 PUSH2 0x4EC PUSH2 0x4E7 DUP5 PUSH2 0x49C JUMP JUMPDEST PUSH2 0x482 JUMP JUMPDEST SWAP1 POP DUP3 DUP2 MSTORE PUSH1 0x20 DUP2 ADD DUP5 DUP5 DUP5 ADD GT ISZERO PUSH2 0x508 JUMPI PUSH2 0x507 PUSH2 0x420 JUMP JUMPDEST JUMPDEST PUSH2 0x513 DUP5 DUP3 DUP6 PUSH2 0x4CC JUMP JUMPDEST POP SWAP4 SWAP3 POP POP POP JUMP JUMPDEST PUSH0 DUP3 PUSH1 0x1F DUP4 ADD SLT PUSH2 0x52F JUMPI PUSH2 0x52E PUSH2 0x41C JUMP JUMPDEST JUMPDEST DUP2 CALLDATALOAD PUSH2 0x53F DUP5 DUP3 PUSH1 0x20 DUP7 ADD PUSH2 0x4DA JUMP JUMPDEST SWAP2 POP POP SWAP3 SWAP2 POP POP JUMP JUMPDEST PUSH0 DUP1 PUSH0 DUP1 PUSH1 0x80 DUP6 DUP8 SUB SLT ISZERO PUSH2 0x560 JUMPI PUSH2 0x55F PUSH2 0x2D3 JUMP JUMPDEST JUMPDEST PUSH0 PUSH2 0x56D DUP8 DUP3 DUP9 ADD PUSH2 0x2FA JUMP JUMPDEST SWAP5 POP POP PUSH1 0x20 DUP6 ADD CALLDATALOAD PUSH8 0xFFFFFFFFFFFFFFFF DUP2 GT ISZERO PUSH2 0x58E JUMPI PUSH2 0x58D PUSH2 0x2D7 JUMP JUMPDEST JUMPDEST PUSH2 0x59A DUP8 DUP3 DUP9 ADD PUSH2 0x51B JUMP JUMPDEST SWAP4 POP POP PUSH1 0x40 PUSH2 0x5AB DUP8 DUP3 DUP9 ADD PUSH2 0x2FA JUMP JUMPDEST SWAP3 POP POP PUSH1 0x60 PUSH2 0x5BC DUP8 DUP3 DUP9 ADD PUSH2 0x2FA JUMP JUMPDEST SWAP2 POP POP SWAP3 SWAP6 SWAP2 SWAP5 POP SWAP3 POP JUMP JUMPDEST PUSH32 0x4E487B7100000000000000000000000000000000000000000000000000000000 PUSH0 MSTORE PUSH1 0x22 PUSH1 0x4 MSTORE PUSH1 0x24 PUSH0 REVERT JUMPDEST PUSH0 PUSH1 0x2 DUP3 DIV SWAP1 POP PUSH1 0x1 DUP3 AND DUP1 PUSH2 0x60C JUMPI PUSH1 0x7F DUP3 AND SWAP2 POP JUMPDEST PUSH1 0x20 DUP3 LT DUP2 SUB PUSH2 0x61F JUMPI PUSH2 0x61E PUSH2 0x5C8 JUMP JUMPDEST JUMPDEST POP SWAP2 SWAP1 POP JUMP JUMPDEST PUSH0 DUP2 SWAP1 POP DUP2 PUSH0 MSTORE PUSH1 0x20 PUSH0 KECCAK256 SWAP1 POP SWAP2 SWAP1 POP JUMP JUMPDEST PUSH0 PUSH1 0x20 PUSH1 0x1F DUP4 ADD DIV SWAP1 POP SWAP2 SWAP1 POP JUMP JUMPDEST PUSH0 DUP3 DUP3 SHL SWAP1 POP SWAP3 SWAP2 POP POP JUMP JUMPDEST PUSH0 PUSH1 0x8 DUP4 MUL PUSH2 0x681 PUSH32 0xFFFFFFFFFFFFFFFFFFFFFFFFFFFFFFFFFFFFFFFFFFFFFFFFFFFFFFFFFFFFFFFF DUP3 PUSH2 0x646 JUMP JUMPDEST PUSH2 0x68B DUP7 DUP4 PUSH2 0x646 JUMP JUMPDEST SWAP6 POP DUP1 NOT DUP5 AND SWAP4 POP DUP1 DUP7 AND DUP5 OR SWAP3 POP POP POP SWAP4 SWAP3 POP POP POP JUMP JUMPDEST PUSH0 DUP2 SWAP1 POP SWAP2 SWAP1 POP JUMP JUMPDEST PUSH0 PUSH2 0x6C6 PUSH2 0x6C1 PUSH2 0x6BC DUP5 PUSH2 0x2DB JUMP JUMPDEST PUSH2 0x6A3 JUMP JUMPDEST PUSH2 0x2DB JUMP JUMPDEST SWAP1 POP SWAP2 SWAP1 POP JUMP JUMPDEST PUSH0 DUP2 SWAP1 POP SWAP2 SWAP1 POP JUMP JUMPDEST PUSH2 0x6DF DUP4 PUSH2 0x6AC JUMP JUMPDEST PUSH2 0x6F3 PUSH2 0x6EB DUP3 PUSH2 0x6CD JUMP JUMPDEST DUP5 DUP5 SLOAD PUSH2 0x652 JUMP JUMPDEST DUP3 SSTORE POP POP POP POP JUMP JUMPDEST PUSH0 SWAP1 JUMP JUMPDEST PUSH2 0x707 PUSH2 0x6FB JUMP JUMPDEST PUSH2 0x712 DUP2 DUP5 DUP5 PUSH2 0x6D6 JUMP JUMPDEST POP POP POP JUMP JUMPDEST JUMPDEST DUP2 DUP2 LT ISZERO PUSH2 0x735 JUMPI PUSH2 0x72A PUSH0 DUP3 PUSH2 0x6FF JUMP JUMPDEST PUSH1 0x1 DUP2 ADD SWAP1 POP PUSH2 0x718 JUMP JUMPDEST POP POP JUMP JUMPDEST PUSH1 0x1F DUP3 GT ISZERO PUSH2 0x77A JUMPI PUSH2 0x74B DUP2 PUSH2 0x625 JUMP JUMPDEST PUSH2 0x754 DUP5 PUSH2 0x637 JUMP JUMPDEST DUP2 ADD PUSH1 0x20 DUP6 LT ISZERO PUSH2 0x763 JUMPI DUP2 SWAP1 POP JUMPDEST PUSH2 0x777 PUSH2 0x76F DUP6 PUSH2 0x637 JUMP JUMPDEST DUP4 ADD DUP3 PUSH2 0x717 JUMP JUMPDEST POP POP JUMPDEST POP POP POP JUMP JUMPDEST PUSH0 DUP3 DUP3 SHR SWAP1 POP SWAP3 SWAP2 POP POP JUMP JUMPDEST PUSH0 PUSH2 0x79A PUSH0 NOT DUP5 PUSH1 0x8 MUL PUSH2 0x77F JUMP JUMPDEST NOT DUP1 DUP4 AND SWAP2 POP POP SWAP3 SWAP2 POP POP JUMP JUMPDEST PUSH0 PUSH2 0x7B2 DUP4 DUP4 PUSH2 0x78B JUMP JUMPDEST SWAP2 POP DUP3 PUSH1 0x2 MUL DUP3 OR SWAP1 POP SWAP3 SWAP2 POP POP JUMP JUMPDEST PUSH2 0x7CB DUP3 PUSH2 0x348 JUMP JUMPDEST PUSH8 0xFFFFFFFFFFFFFFFF DUP2 GT ISZERO PUSH2 0x7E4 JUMPI PUSH2 0x7E3 PUSH2 0x424 JUMP JUMPDEST JUMPDEST PUSH2 0x7EE DUP3 SLOAD PUSH2 0x5F5 JUMP JUMPDEST PUSH2 0x7F9 DUP3 DUP3 DUP6 PUSH2 0x739 JUMP JUMPDEST PUSH0 PUSH1 0x20 SWAP1 POP PUSH1 0x1F DUP4 GT PUSH1 0x1 DUP2 EQ PUSH2 0x82A JUMPI PUSH0 DUP5 ISZERO PUSH2 0x818 JUMPI DUP3 DUP8 ADD MLOAD SWAP1 POP JUMPDEST PUSH2 0x822 DUP6 DUP3 PUSH2 0x7A7 JUMP JUMPDEST DUP7 SSTORE POP PUSH2 0x889 JUMP JUMPDEST PUSH1 0x1F NOT DUP5 AND PUSH2 0x838 DUP7 PUSH2 0x625 JUMP JUMPDEST PUSH0 JUMPDEST DUP3 DUP2 LT ISZERO PUSH2 0x85F JUMPI DUP5 DUP10 ADD MLOAD DUP3 SSTORE PUSH1 0x1 DUP3 ADD SWAP2 POP PUSH1 0x20 DUP6 ADD SWAP5 POP PUSH1 0x20 DUP2 ADD SWAP1 POP PUSH2 0x83A JUMP JUMPDEST DUP7 DUP4 LT ISZERO PUSH2 0x87C JUMPI DUP5 DUP10 ADD MLOAD PUSH2 0x878 PUSH1 0x1F DUP10 AND DUP3 PUSH2 0x78B JUMP JUMPDEST DUP4 SSTORE POP JUMPDEST PUSH1 0x1 PUSH1 0x2 DUP9 MUL ADD DUP9 SSTORE POP POP POP JUMPDEST POP POP POP POP POP POP JUMP JUMPDEST PUSH0 PUSH1 0x60 DUP3 ADD SWAP1 POP DUP2 DUP2 SUB PUSH0 DUP4 ADD MSTORE PUSH2 0x8A9 DUP2 DUP7 PUSH2 0x39A JUMP JUMPDEST SWAP1 POP PUSH2 0x8B8 PUSH1 0x20 DUP4 ADD DUP6 PUSH2 0x339 JUMP JUMPDEST PUSH2 0x8C5 PUSH1 0x40 DUP4 ADD DUP5 PUSH2 0x339 JUMP JUMPDEST SWAP5 SWAP4 POP POP POP POP JUMP INVALID LOG2 PUSH5 0x6970667358 0x22 SLT KECCAK256 PUSH20 0x77C31B5EC54F60BE6C263B38BE4D9B7197A966FA 0x4A 0xEC EQ 0xC 0xEC RETURNDATACOPY PUSH30 0xCBE3E73F64736F6C63430008160033000000000000000000000000000000 "
				},
				"gasEstimates": {
					"creation": {
						"codeDepositCost": "461400",
						"executionCost": "497",
						"totalCost": "461897"
					},
					"external": {
						"addItem(uint256,string,uint256,uint256)": "infinite",
						"items(uint256)": "infinite",
						"removeItem(uint256)": "infinite"
					}
				},
				"methodIdentifiers": {
					"addItem(uint256,string,uint256,uint256)": "ec67b45d",
					"items(uint256)": "bfb231d2",
					"removeItem(uint256)": "71329171"
				}
			},
			"storageLayout": {
				"storage": [
					{
						"astId": 15,
						"contract": "contracts/HelloWorld.sol:Storage",
						"label": "items",
						"offset": 0,
						"slot": "0",
						"type": "t_mapping(t_uint256,t_struct(Item)10_storage)"
					}
				],
				"types": {
					"t_mapping(t_uint256,t_struct(Item)10_storage)": {
						"encoding": "mapping",
						"key": "t_uint256",
						"label": "mapping(uint256 => struct Storage.Item)",
						"numberOfBytes": "32",
						"value": "t_struct(Item)10_storage"
					},
					"t_string_storage": {
						"encoding": "bytes",
						"label": "string",
						"numberOfBytes": "32"
					},
					"t_struct(Item)10_storage": {
						"encoding": "inplace",
						"label": "struct Storage.Item",
						"members": [
							{
								"astId": 3,
								"contract": "contracts/HelloWorld.sol:Storage",
								"label": "id",
								"offset": 0,
								"slot": "0",
								"type": "t_uint256"
							},
							{
								"astId": 5,
								"contract": "contracts/HelloWorld.sol:Storage",
								"label": "name",
								"offset": 0,
								"slot": "1",
								"type": "t_string_storage"
							},
							{
								"astId": 7,
								"contract": "contracts/HelloWorld.sol:Storage",
								"label": "quantity",
								"offset": 0,
								"slot": "2",
								"type": "t_uint256"
							},
							{
								"astId": 9,
								"contract": "contracts/HelloWorld.sol:Storage",
								"label": "timestamp",
								"offset": 0,
								"slot": "3",
								"type": "t_uint256"
							}
						],
						"numberOfBytes": "128"
					},
					"t_uint256": {
						"encoding": "inplace",
						"label": "uint256",
						"numberOfBytes": "32"
					}
				}
			},
			"userdoc": {
				"kind": "user",
				"methods": {},
				"version": 1
			}
		}
	}
}